:100000000C9446000C9465000C9465000C946500FB
:100010000C9465000C9465000C9465000C946500CC
:100020000C9465000C9465000C9465000C946500BC
:100030000C9465000C9465000C9465000C9491116F
:100040000C9465000C9465000C9465000C9465009C
:100050000C9465000C9465000C9465000C9465008C
:100060000C9465000C9465000C9465000C9465007C
:100070000C9465000C9465000C9465000C9465006C
:100080000C9465000C9497020C94650011241FBE1B
:10009000C0E0D0E1DEBFCDBF12E0A0E0B1E0E6E21B
:1000A000F9E200E00BBF02C007900D92A03FB1073C
:1000B000D9F714E0A0EFB2E001C01D92AD3AB1074C
:1000C000E1F70E94FE0B0C9491140C940000379AF7
:1000D000359A86B1887F856086B987B18F7387B975
:1000E0003D9A089597B18F71907E892B87B90895B5
:1000F000349A369A089585B10895E199FECF8EBB62
:100100009FBB6DBBE29AE19A0895E199FECF8EBB49
:100110009FBBE09A8DB30895DF92EF92FF920F9309
:100120001F93DF93CF93CDB7DEB7C850D2400FB641
:10013000F894DEBF0FBECDBF81E089831A821B8297
:100140008C8388E090E09093F1028093F002CE01DE
:1001500009960E945A13082F10E0085F1F4FDFB660
:10016000F8942091F0023091F102A801421B530B48
:1001700069E0E62EF12CEC0EFD1EF701B7014E0DE5
:100180005F1D0BC08081E199FECF2EBB3FBB8DBBB5
:10019000E29AE19A2F5F3F4F3196E417F50791F706
:1001A0001093F1020093F002C80133E09695879511
:1001B0003A95E1F78D83CB010E940E13080F111DB4
:1001C0008091F0029091F1029801281B390BF70100
:1001D000BE01675F7F4F260F371F0AC04081E1993C
:1001E000FECF8EBB9FBB4DBBE29AE19A0196319642
:1001F000E217F30799F7C80123E0969587952A95AA
:10020000E1F78E831093F1020093F002CB010E947C
:100210000F14080F111D2091F0023091F102A80176
:10022000421B530BF701CE010996480F591F0BC013
:100230006081E199FECF2EBB3FBB6DBBE29AE19A94
:100240002F5F3F4F3196E417F50791F71093F102B6
:100250000093F0020E94A113B801680F711D209154
:10026000F0023091F102CB01821B930BAE01475F8C
:100270005F4F480F591F0EC0F7018081E199FECFF3
:100280002EBB3FBB8DBBE29AE19A2F5F3F4F089494
:10029000E11CF11CE416F50679F77093F102609306
:1002A000F0021F828E010F5F1F4FC80167E00E949E
:1002B0005C058887F8019E01275F3F4F9081E19997
:1002C000FECF8E2F801B8EBB1FBA9DBBE29AE19A98
:1002D0003196E217F30791F7DFBEC85FDD4F0FB627
:1002E000F894DEBF0FBECDBFCF91DF911F910F916C
:1002F000FF90EF90DF900895FC0188E2808381E019
:100300008183128283E0089580E0089580E008955B
:10031000FC0184E180831182128283E008951F939F
:10032000182F159905C0159A8AE090E00E945D117A
:10033000112311F01D9A01C01D981F9108951F935C
:10034000182F179905C0179A8AE090E00E945D1156
:10035000112311F01F9A01C01F981F910895813039
:1003600051F0813030F0823049F0833071F08FEFFE
:100370000895AC9A01C0AC98AD9A02C0AC9AAD9801
:1003800082E00E94B31280E00895AC98AD9882E0BC
:100390000E94B31280E00895CF92DF92EF92FF9215
:1003A0000F931F93CF93DF93FC01D42E918180E0B4
:1003B0002081022F10E0082B192BC801840F911DFA
:1003C0008952914018F0DD24DA9412C0CFB6F89427
:1003D0007B01C0E0D0E009C0CE01800F911FF70182
:1003E00061917F010E947D002196CD15A8F3CFBEBB
:1003F0008D2DDF91CF911F910F91FF90EF90DF90A6
:10040000CF900895DF92EF92FF920F931F93CF93B7
:10041000DF93FC01D62EDA0126E1261700F1918147
:1004200080E02081022F10E0082B192B7801C801F1
:10043000860F911D8952914090F46C93EA0107C098
:10044000C7010E94850088830894E11CF11C219655
:100450008E2D801B8D15A0F38D2D8F5F01C08FEF2A
:10046000DF91CF911F910F91FF90EF90DF90089552
:10047000BC01809171008E7F80937100809171002A
:100480008D7F8093710080E991E00E947D1460313E
:1004900030F0862F90E0409795958795682F609370
:1004A00070000895909A919A109238031092370331
:1004B00084E190E00E943802E4E7F0E0808184600B
:1004C00080831092F20280818160808380818064C9
:1004D0008083089590E0611191E08E7F982B909336
:1004E0007200089590933803809337030895982FEE
:1004F0008091F2028823E1F782E08093F2029E7FEE
:100500009093F302A4EFB2E0FA0102C081918D93BF
:100510008E2F841B8617D0F310921403609315035B
:10052000809174008F70806A8093740008951F9288
:100530000F920FB60F920BB60F9211242F933F9389
:100540004F935F936F937F938F939F93AF93BF93DB
:10055000EF93FF9380917100887F803609F450C03B
:100560008136D0F48831A9F1893140F4883071F1B5
:10057000803161F1882309F47AC081C0883249F161
:10058000893220F4803209F07AC023C0803309F127
:10059000883309F074C02FC08038E9F1813840F405
:1005A000803771F1883761F1883609F068C028C05A
:1005B000803989F1813920F4883809F060C03EC063
:1005C0008839E1F1803A09F05AC03FC08091F302C6
:1005D0000FC09091140380911503981708F047C03D
:1005E000E92FF0E0EC50FD4F80819F5F9093140362
:1005F0008093730023C0809174008F7080683BC02B
:1006000085E08093F202809173008093160381E06D
:10061000809336030EC08091360390917300E82FCB
:10062000F0E0EA5EFC4F90838F5F80933603803268
:1006300028F4809174008F70806C04C080917400E5
:100640008F708068809374001AC0809174008F70DE
:10065000806C80937400E0913703F09138033097F9
:1006600061F08091360366E173E0099506C08091E0
:1006700074008F70806D809374001092F202FF916D
:10068000EF91BF91AF919F918F917F916F915F910A
:100690004F913F912F910F900BBE0F900FBE0F9077
:1006A0001F90189527E030E0482F50E0CA01022E35
:1006B00002C0959587950A94E2F780FF02C0959A4B
:1006C00001C095980000000000000000000000003C
:1006D000000000000000000000000000000000001A
:1006E000949A0000000000000000000000000000DC
:1006F00000000000000000000000000000009498CE
:10070000215030408FEF2F3F380709F0CFCF959A17
:100710008D980000000000000000000000000000B4
:100720000000000000000000000000000000949A9B
:1007300080B3000000000000000000000000000086
:10074000000000000000000000000000000094987D
:100750008D9A000000000000000000000000000072
:100760000000000000000000000000000000829572
:1007700086958770809581700895959A8D9827E069
:1007800030E040E000000000000000000000000039
:100790000000000000000000000000000000000059
:1007A000949A440F85994160000000000000000009
:1007B0000000000000000000000000000000000039
:1007C000000000009498215030405FEF2F3F350724
:1007D00009F0D8CF8D9A892B11F0959A01C0959880
:1007E0000000000000000000000000000000000009
:1007F000000000000000000000000000949A0000CB
:1008000000000000000000000000000000000000E8
:10081000000000000000000000009498959A842FCA
:1008200008958D9A8C9A00000000000000000000DE
:1008300000000000000000000000000000000000B8
:100840000000949A0000000000000000000000007A
:100850000000000000000000000000000000000098
:10086000959A000000000000000000000000000059
:1008700000000000000000000000000000000895DB
:10088000CF92DF92EF92FF920F931F93CF93DF935C
:10089000D62EC72EE42EF22EE80195980000000017
:1008A000000000000000000000009498880F0E94E3
:1008B000520382E0E81621F48C2D0E94520303C0FB
:1008C00081E0E81641F48D2D0E94520304C0899105
:1008D0000E945203FA94FF20D1F79598000000007F
:1008E0000000000000000000000000000000000008
:1008F0000000000000000000949A000000000000CA
:1009000000000000000000000000000000000000E7
:10091000000000000000959A0000000000000000A8
:1009200000000000000000000000000000000000C7
:1009300000000000DF91CF911F910F91FF90EF9089
:10094000DF90CF900895BF92CF92DF92EF92FF9207
:100950000F931F93CF93DF93E62ED72EF42EC22E44
:10096000B12E182F110F9598000000000000000014
:10097000000000000000949882E0481729F4812FBD
:100980000E9452038D2D04C081E0481731F4812F5D
:100990000E9452038E2D0E945203000000000000AE
:1009A0000000000000000000000000000000000047
:1009B000000000000000FF2009F426C0949A000007
:1009C0000000000000000000000000000000000027
:1009D00000000000000000000000959800000000EA
:1009E00000000000000000000000949800000000DB
:1009F00000000000000000000000000000000000F7
:100A00000000000000000000812F81600E9452035E
:100A1000802F9B2D9C01E901FF240C2D10E001503B
:100A200010400EC020E030E08F2D90E0801791073D
:100A300011F421E030E0C9010E94BD038993F394D1
:100A4000FC1480F3959800000000000000000000F6
:100A50000000000000000000000000000000000096
:100A60000000949A00000000000000000000000058
:100A70000000000000000000000000000000000076
:100A8000959A000000000000000000000000000037
:100A90000000000000000000000000000000DF91E6
:100AA000CF911F910F91FF90EF90DF90CF90BF906B
:100AB000089580913C030895AC0120E006C0615088
:100AC000FA01E60FF11D8081280F6623C1F7822FFE
:100AD00081950895482F8091C50388608093C50350
:100AE0008091C50380FD11C0AEE5B3E0FB0102C0FB
:100AF00081918D938E2F861B8417D0F340937E03B4
:100B00008091C50381608093C5030895FF920F9380
:100B10001F93BB98BA98B998B89AC09880B584606A
:100B200080BD88B388BB84E690E00E945D1186B3E7
:100B300090E0A3E096958795AA95E1F7FF24F394BA
:100B4000F82286B390E09695879596958795082F1D
:100B5000017086B390E096958795182F1170C09A12
:100B600084E690E00E945D1186B32F2D30E090E086
:100B700073E0969587957A95E1F7817090702817C4
:100B8000390711F062E0F62E86B3202F30E090E0B6
:100B90009695879596958795817090702817390757
:100BA00009F002E086B3212F30E090E0969587951A
:100BB000817090702817390709F012E081E0F8166B
:100BC000B9F1F81628F082E0F81609F041C011C01A
:100BD000002319F00230E1F504C01230C9F592E7A4
:100BE00038C0112311F494E734C0123089F596E728
:100BF00030C00130A9F0013018F0023049F508C0CA
:100C0000112311F498E725C0123011F59AE721C09D
:100C1000112311F49CE71DC01130D1F49EE719C0D7
:100C2000123011F490E815C0113091F492E811C01F
:100C3000013051F0023061F4123011F494E809C02F
:100C4000113031F496E805C0123011F498E801C073
:100C500090E080B58B7F80BD992309F490E7892FC0
:100C60001F910F91FF9008958091C50382FF18C0D6
:100C70008091BB03833068F4809167046DE04EE39C
:100C800053E00E9477028091BB038F5F8093BB0388
:100C900008958091C5038B7F8093C5031092BB0399
:100CA0000895282F8091C50382FD52C030916704BA
:100CB00030933D0380E180933E03832F805F8195D5
:100CC00080933F038091C603809340038091BA03D1
:100CD0008F5F8093BA03880F880F8093410382E06F
:100CE0008093420384E080934303822F90E0FC01D1
:100CF000EE0FFF1FE80FF91FEE0FFF1FE157FB4F2D
:100D0000828180934403209345038481809346032A
:100D1000609347038FEF809348038093490320E05B
:100D20009DE09150E92FF0E0E35CFC4F8081280FBB
:100D30009923B9F7219520934A03832F6DE04EE361
:100D400053E00E9477028091C50384608093C503BD
:100D500008950F931F93DF93CF93CDB7DEB7A1977D
:100D60000FB6F894DEBF0FBECDBF482F5091B7032A
:100D7000598390917F03292F30E02F5F3F4F220F3F
:100D8000331F220F331F809180038370822B8A834D
:100D9000850F81958B838091B9038C838091B803F3
:100DA000880F880F8D83809181038E834F839C32BF
:100DB00011F067E002C0188668E04423C9F440914E
:100DC000B6034423A9F0ADE9B3E0962F242F30E019
:100DD0002A0F3B1F8E010F5F1F4F06C0F801E90F5E
:100DE000F11D8D9180839F5FA217B307B9F7640F40
:100DF000962F20E0DE01119606C09150FD01E90F0B
:100E0000F11D8081280F9923C1F7A60FB11D2195EF
:100E10002C93852FAE014E5F5F4F0E947702809129
:100E2000C5038E7F8093C503A1960FB6F894DEBFED
:100E30000FBECDBFCF91DF911F910F910895AF925B
:100E4000CF92EF92FF920F931F93DF93CF930F9266
:100E5000CDB7DEB71092B60380913B03A82FB0E068
:100E600020917F03FD01E953FC4F20839091810382
:100E7000A95EBB4F9C938F5F80933B038F3410F030
:100E800010923B032A3009F4DFC02B3030F42430B9
:100E900079F1263009F003C20AC02E3209F4D4C118
:100EA000203309F4E5C12C3209F0F9C11CC191309D
:100EB00009F0F5C110929D0380E880939E03909302
:100EC0009F031092A00381E58093A10389E28093A0
:100ED000A20380E68093A3031092A4031092A503BB
:100EE00085E38093A60382E18093A7038BE094C1FE
:100EF0009132A1F1923240F4913019F19130A0F089
:100F0000903209F0CCC124C0963209F463C0973204
:100F100020F4923209F0C3C170C0973209F453C073
:100F20009D3209F0BCC184C0809184038093670422
:100F30008F3F19F410923C03B6C181E080933C03CB
:100F4000B2C18091670480939D039093B603ABC1B7
:100F50008DE993E060E00E94BF0D5EC1609188035F
:100F60006623F9F04091BC035091BD038091840346
:100F700090E09A0130708217930709F096C1809132
:100F8000850390E0252F33278217930709F08DC141
:100F900086E893E0409189032DE933E00E94D60D65
:100FA0002CC186E893E060E0409189032DE933E0AD
:100FB0000E94D60D8093B6038F3F09F472C181E081
:100FC0008093390370C1809184036DE973E00E94BE
:100FD0002D0E34C080918403609185034091860377
:100FE0002091870300918803E0908903C0908A03D1
:100FF000A0908B030E94B70E21C08091BC039091FA
:10100000BD0301969093BD038093BC03892B31F4FB
:1010100081E090E09093BD038093BC038091BC037A
:101020009091BD0380939D0390939E0382E0F4C052
:10103000809184036DE973E00E94560F8093B6039C
:101040008F3F09F030C133C1913199F0923179F17C
:10105000903109F024C180918403813029F48DE915
:1010600093E00E94790DD8C08DE993E00E947C0145
:10107000D3C080918403813049F485E893E0609186
:1010800087034DE953E00E947B0DC6C085E893E0DD
:10109000609187034DE953E00E9402028093B603FA
:1010A0008F3F09F4FEC081E080933A03FCC0809139
:1010B0008403813051F440918203435085E893E0EA
:1010C00067E873E00E947D0D09C0409182034350A0
:1010D00085E893E067E873E00E94CC018093B60353
:1010E0008091B6038CC0973009F45DC0983070F4DD
:1010F000943021F1953018F49923D9F0D0C095306F
:1011000009F441C0963009F0CAC044C0913109F4D5
:1011100092C0923138F4983009F467C09D3009F0DC
:10112000BEC071C0993109F47AC09A3109F0B7C0D4
:101130007BC08DE993E00E9488016EC08091850399
:10114000813031F480918603843011F480E0BFC097
:10115000809186030E94B3128F3F11F42CECA8C03B
:1011600080918603843009F09EC080E00E94A90629
:1011700086E00E94B31280E062E00E94510681E0A6
:1011800080937D04A6C0809185036DE973E00E9481
:101190003C0A42C080918503609186034DE953E08B
:1011A0000E94470A2AC0909185039923A1F4809157
:1011B0008603882381F480918703882339F4809102
:1011C0007D048350823038F083E003C08F3F19F4F0
:1011D00081E080937D04892F60918603409187038D
:1011E000209188030E94EC0A08C0809185036091D9
:1011F00086034DE953E00E94080A8093B6038F3FAF
:1012000009F051C04EC080918603882309F049C07F
:101210008DE993E00E94820F8093B60344C080E082
:1012200060E00E948601F8CF809184036DE973E04D
:101230000E948401F1CF809185038130A1F58091D6
:1012400086030E94760D2FC0209182032350892FA0
:1012500064E873E047E853E00DE913E07E01089489
:10126000E11CF11C0E94F8118093B603298120C073
:10127000913039F4809184030E94AF01882389F46E
:1012800012C0923029F4809184030E949F010BC008
:10129000933029F4809184030E948F0104C021ECD3
:1012A00007C029EC05C020E003C025EC01C02DECEF
:1012B00080913903813051F480913A03813031F4C7
:1012C00081E090E09093C1038093C003822F0E943D
:1012D000A9060F90CF91DF911F910F91FF90EF9092
:1012E000CF90AF900895CF93DF938091C50380FF97
:1012F00076C020915F03A0915E038A2F820F8195B3
:1013000090916003981709F06AC060917E03362FB0
:101310003150462F50E0EA012197FE01E25AFC4F7E
:10132000708190E007C03150E32FF0E0E25AFC4FAB
:101330008081980F3323B9F79195791709F04FC041
:10134000A093B9032695269520937F0330916103DE
:101350003093B70380916203982F9695969590935A
:10136000B80383708093800380916303809381032B
:1013700020FF15C080916704381789F580916403B8
:10138000882369F58091C5038B7F8093C503809185
:10139000C5038E7F8093C5031092BB0320C06830C5
:1013A000C0F047505040509383034093820396E02F
:1013B00008C0F0E0E158FC4FA25ABC4F8C918583E5
:1013C0009F5FE92FE650A92FB0E0AC17BD078CF363
:1013D00004C010928303109282030E941F07DF91C2
:1013E000CF9108950E9452020E9486058093C60301
:1013F0006FEF0E946A028AE695E00E94720280E224
:101400008093670481E08093BA031092BB03089530
:10141000DA01882311F080E00895633010F08FEF37
:101420000895862F90E0FC0123E0EE0FFF1F2A9520
:10143000E1F7E81BF90BE859FB4F84818C9380811D
:1014400011968C93119712961C9212978381139682
:101450008C9313978481823011F084E00895818108
:1014600014968C931497828115968C93159783818B
:1014700016968C9387E00895FB0197E0908388236C
:1014800019F483E0818301C0118282E00895FA019A
:10149000882319F4633018F01EC08130E1F0613008
:1014A00049F0613018F0623091F40BC082E0808323
:1014B00081E003C084E0808382E08183828383E0D3
:1014C000089588E0808383E0818382830895AF015B
:1014D0000E94C91108958FEF08951F93CF93DF9352
:1014E000982F162FC82FD0E0FE0143E0EE0FFF1F0C
:1014F0004A95E1F7EC1BFD0BE859FB4F84818130E5
:1015000039F1913059F0913018F0923099F40CC0C3
:101510006F3F11F4C79811C0C79A0FC06F3F11F405
:10152000C5980BC0C59A09C06F3F11F4C69805C095
:10153000C69A03C0892F0E94F711FE0133E0EE0F17
:10154000FF1F3A95E1F7EC1BFD0BE859FB4F1583A4
:10155000DF91CF911F9108951F93CF93DF93982F21
:10156000162FC82FD0E0FE0163E0EE0FFF1F6A9533
:10157000E1F7EC1BFD0BE859FB4F8481823041F110
:10158000913059F0913018F0923099F40CC01F3F0F
:1015900011F4C79812C0C79A10C01F3F11F4C59824
:1015A0000CC0C59A0AC01F3F11F4C69806C0C69A5F
:1015B00004C0892F612F0E94F611FE0153E0EE0F47
:1015C000FF1F5A95E1F7EC1BFD0BE859FB4F108309
:1015D000DF91CF911F9108950F931F93CF93DF93C6
:1015E000042F122F882309F054C0633008F073C011
:1015F000842F81508A3FF8F4862F90E0EC01B3E00D
:10160000CC0FDD1FBA95E1F7C81BD90BC859DB4FCA
:1016100049832A8382E08C838D818F3F31F4862F2A
:1016200060E00E946D0A0E8354C0862F6FEF0E9407
:101630006D0A1E834EC08E3FA8F0862F90E0FC01FD
:10164000A3E0EE0FFF1FAA95E1F7E81BF90BE8599D
:10165000FB4F4183128282E08483862F642F0E9495
:101660006D0A37C04C3FB9F5862F90E08C01E3E05E
:10167000000F111FEA95E1F7081B190B08591B4FC2
:10168000862FF80160810E94AC0A81E0F801848312
:1016900020C08130F1F4862F90E0FC0173E0EE0F62
:1016A000FF1F7A95E1F7E81BF90BE358FB4F4183E5
:1016B000228382E08483442319F4862F60E007C0EC
:1016C0004F3F19F4862F6FEF02C0862F61E00E9412
:1016D000770D80E001C08FEFDF91CF911F910F91C7
:1016E0000895282F90E0FC0133E0EE0FFF1F3A959C
:1016F000E1F7E81BF90BE859FB4F84818230A1F038
:10170000213041F0213018F0223051F406C0B79B4F
:101710000DC00AC0B59B0AC007C0B69B07C004C075
:10172000822F0E94F511089580E008958FEF0895AB
:101730001F938FEF809368048093690410926A046A
:1017400011E010936B0410936C0480E06FEF0E9423
:10175000AC0A10926F04109270041092710482E02F
:10176000809372041093730481E060E00E94AC0ADD
:1017700010927604109277041092780483E080939C
:10178000790410937A0482E060E00E94AC0A0E941F
:10179000F4111F91089588E38ABB1BBA81EE87BBC1
:1017A00018BA11BA12BA12B813B810926100109296
:1017B00062000E94BC1108958091C2038F5F8093E4
:1017C000C2030E94B70D80938B048091C2038436BC
:1017D000A1F4809187048260809387041092C203F1
:1017E00080918404882331F0815080938404109286
:1017F0008304089581E0809383040895DF92EF923B
:10180000FF920F931F931092870410927D040E9401
:10181000CB0B80E090E00E9485008F3F11F40E9486
:101820008C000E9411040E94980B459B09C082E025
:1018300080938E040E94F2098091C6030E947F0D5E
:10184000479A0E941A110E947A118CED9BE00E9427
:101850008C118EE028E130E00FB6F894A89521BDF8
:101860000FBE81BD0E94B70D80938B0480938F04BF
:10187000882311F481E001C082E080939004789481
:1018800010E025E0E22E04E09AE0F92E83E0D82E65
:10189000A8950E9473090E9459058093C1031123E2
:1018A00069F4813059F480E061E741E00E94F3116E
:1018B00080E060918B040E94510611E080917D04CC
:1018C000833009F477C0843028F48130B9F0823055
:1018D000F0F50AC0853009F4B2C0853008F480C044
:1018E000863009F0E3C0C7C082E060E00E94AC0A25
:1018F00080918E04823009F0DBC0D6C081E06FEFAA
:101900000E94AC0A82E060E00E94AC0A80E06FEFC7
:101910000E94AC0A86E00E94B31260918B04809111
:101920008F04681719F4662309F0C2C060938F040E
:10193000662349F481E08093900482E080937D04E3
:10194000F092840433C082E0809390042FC0809191
:1019500083048130A9F480E00E94710B8F3F19F459
:1019600080E060E002C080E06FEF0E94AC0A10925D
:101970008304F092840480E060918B040E945106FD
:101980000E940F11882331F085E00E94B312D0929B
:101990007D048EC060918B0480918F04681709F4D8
:1019A00087C060938F0481E080937D0480E00E9473
:1019B00051067EC080E060E00E94AC0A82E060E0F8
:1019C0000E94AC0A99B390937F0481E080937E04D7
:1019D00090938A040E94DA11882311F000937D0409
:1019E00080E060E00E94AC0A81E060E00E94AC0A06
:1019F00082E06FEF0E94AC0A60918B0480918F04AB
:101A00006817B1F060938F04662331F481E080930E
:101A1000900400937D0409C082E080939004E092DA
:101A20007D04809384041092830480E00E94510618
:101A30000E940F118823E1F5E0927D0439C086E011
:101A40000E94B31280918304813089F480E00E9467
:101A5000710B8F3F19F480E060E002C080E06FEF0F
:101A60000E94AC0A1092830482E08093840486E092
:101A700080937D041DC080918304813089F480E0CF
:101A80000E94710B8F3F19F480E060E002C080E09B
:101A90006FEF0E94AC0A1092830482E0809384046A
:101AA0000E940F11882321F481E0E2CF10927D047F
:101AB0008091870481FF0CC00E9434060E94E512C9
:101AC00080917D04843021F40E94750D0E94780D70
:101AD0001092870485B7837E85BF85B7806285BFF6
:101AE000889585B78F7D85BFD3CE089508950895D5
:101AF000089580E0089580E0089580E00895CF93F0
:101B0000DF93682F90E08057904095958795582FE8
:101B10005066C9E4D2E020E030E0422FA881B981CC
:101B2000F901EB5AFD4F8081855014968C931497E0
:101B300013969C911397892F8150823020F4199627
:101B40005C93199705C0923119F41D965C931D970B
:101B50004C9311961C92119715966C932F5F3F4FE3
:101B6000229626303105C9F6DF91CF91089580B3D2
:101B700090E0969587959695879581700895FC01DC
:101B80008091BE03882341F48091BF03882321F014
:101B9000662321F088E005C0662311F086E001C0CD
:101BA00085E0808381E0818382E00895CF93DF9395
:101BB000FC01742FE9018091BE03882331F48091E8
:101BC000BF03882311F038E001C036E0918180E046
:101BD0002081A22FB0E0A82BB92B432F50E04A1749
:101BE0005B07B8F17731A8F5613498F5FD01EB5A40
:101BF000FD4F2081261768F1862F90E0870F911DF9
:101C000030E0281739072CF1CD010196841795078C
:101C100028F48A2F8F5F8883198203C08FEF88830F
:101C20008983262F30E0AA0FBB1FA75BBD4F09C0D9
:101C3000ED91FC911197E20FF31F808189832F5F53
:101C40003F4F2196822F861B871790F3872F8E5F39
:101C500001C08FEFDF91CF910895CF93DF93982F3D
:101C6000EB018091BE03882331F48091BF03882368
:101C700011F086E001C085E0292F30E090E02817C0
:101C8000390714F08FEF70C0D901AA0FBB1FA20F44
:101C9000B31FAA0FBB1FA157BB4F1596EC91159709
:101CA000F0E0EE0FFF1FE75BFD4F0190F081E02DAC
:101CB0008381813009F050C08FE388831596EC91C1
:101CC0001597F0E0EE0FFF1FE75BFD4F0190F081ED
:101CD000E02D81A589831596EC911597F0E0EE0F24
:101CE000FF1FE75BFD4F0190F081E02D80A58A8307
:101CF0001596EC911597F0E0EE0FFF1FE75BFD4F97
:101D00000190F081E02D87A18B831596EC911597BA
:101D1000F0E0EE0FFF1FE75BFD4F0190F081E02D3B
:101D200086A18C831596EC911597F0E0EE0FFF1FBE
:101D3000E75BFD4F0190F081E02D85A18D83159625
:101D4000EC91F0E0EE0FFF1FE75BFD4F0190F0819B
:101D5000E02D84A18E8307C0188219821A821B820B
:101D60001C821D821E8287E0DF91CF910895AF9281
:101D7000CF92EF920F93E82F8091BE03882331F426
:101D80008091BF03882311F086E001C085E0AE2F6B
:101D9000B0E090E0A817B90714F08FEF82C0FD0102
:101DA000EE0FFF1FEA0FFB1FEE0FFF1FE157FB4F68
:101DB000E581F0E0EE0FFF1FE75BFD4F0190F08142
:101DC000E02D8381813009F06BC060FD41A761FF88
:101DD00013C0FD01EE0FFF1FEA0FFB1FEE0FFF1FE9
:101DE000E157FB4FE581F0E0EE0FFF1FE75BFD4F92
:101DF0000190F081E02D20A762FF13C0FD01EE0FDE
:101E0000FF1FEA0FFB1FEE0FFF1FE157FB4FE5819E
:101E1000F0E0EE0FFF1FE75BFD4F0190F081E02D3A
:101E200007A363FF13C0FD01EE0FFF1FEA0FFB1FA7
:101E3000EE0FFF1FE157FB4FE581F0E0EE0FFF1FB4
:101E4000E75BFD4F0190F081E02DE6A264FF13C037
:101E5000FD01EE0FFF1FEA0FFB1FEE0FFF1FE15703
:101E6000FB4FE581F0E0EE0FFF1FE75BFD4F0190B8
:101E7000F081E02DC5A265FF13C0FD01EE0FFF1F2D
:101E8000EA0FFB1FEE0FFF1FE157FB4FE581F0E06C
:101E9000EE0FFF1FE75BFD4F0190F081E02DA4A244
:101EA00080E00F91EF90CF90AF900895E82FDB0185
:101EB0008091BE03882331F48091BF03882311F001
:101EC00086E001C085E02E2F30E090E0281739072A
:101ED00014F08FEF0895F901EE0FFF1FE20FF31FCB
:101EE000EE0FFF1FE157FB4F80818C9380EC119622
:101EF0008C931197818112968C93129713961C9252
:101F000084E00895FC0180910001808380910101AB
:101F1000818382E008951F93CF93DF93182FC82FFA
:101F2000D0E0DE01AA0FBB1FAC0FBD1FAA0FBB1F65
:101F3000A157BB4F11968C9111978430B1F0853029
:101F400050F4813009F468C0813008F49FC08230B9
:101F500009F061C126C0803109F407C1803209F45B
:101F60003EC1883009F057C1C6C01596EC9115974F
:101F7000F0E0EE0FFF1FE75BFD4F0190F081E02DD9
:101F80002C9130E043A587A190E0840F911D281784
:101F900039070CF440C182E011968C93812F65E0E3
:101FA00038C11596EC911597F0E0EE0FFF1FE75B37
:101FB000FD4F0190F081E02D9C9187A1891738F0A9
:101FC00084E011968C93812F64E00E945106DE011B
:101FD000AA0FBB1FAC0FBD1FAA0FBB1FA157BB4F42
:101FE0001596EC911597F0E0EE0FFF1FE75BFD4FA4
:101FF0000190F081E02D2C9130E043A580A590E088
:10200000840F911D821793070CF005C181E0119692
:102010008C93812F63E0FDC01596EC911597F0E04D
:10202000EE0FFF1FE75BFD4F0190F081E02D9C91CB
:1020300080A5891738F082E011968C93812F62E099
:102040000E945106DE01AA0FBB1FAC0FBD1FAA0FD5
:10205000BB1FA157BB4F1596EC911597F0E0EE0F03
:10206000FF1FE75BFD4F0190F081E02D2C9130E0E8
:1020700043A581A590E0840F911D821793070CF072
:10208000CAC011961C92812F61E0C3C01596EC91D5
:102090001597F0E0EE0FFF1FE75BFD4F0190F08119
:1020A000E02D9C9181A5891738F081E011968C93E1
:1020B000812F60E00E945106DE01AA0FBB1FAC0F0A
:1020C000BD1FAA0FBB1FA157BB4F1596EC911597CB
:1020D000F0E0EE0FFF1FE75BFD4F0190F081E02D78
:1020E0009C9186A1981708F496C088E011968C936D
:1020F000812F67E08EC01596EC911597F0E0EE0FFA
:10210000FF1FE75BFD4F0190F081E02D9C9185A1C1
:10211000981738F080E111968C93812F69E00E9426
:102120005106DE01AA0FBB1FAC0FBD1FAA0FBB1FBC
:10213000A157BB4F1596EC911597F0E0EE0FFF1FDE
:10214000E75BFD4F0190F081E02D2C9130E086A1FE
:1021500090E042A5841B9109281739070CF05BC059
:1021600011961C92812F66E054C01596EC9115973C
:10217000F0E0EE0FFF1FE75BFD4F0190F081E02DD7
:102180009C9184A1981738F080E211968C93812F4E
:102190006BE00E945106DE01AA0FBB1FAC0FBD1FF2
:1021A000AA0FBB1FA157BB4F1596EC911597F0E0F6
:1021B000EE0FFF1FE75BFD4F0190F081E02D2C91AA
:1021C00030E085A190E042A5841B910928173907CA
:1021D00014F588E011968C93812F68E01AC015964B
:1021E000EC911597F0E0EE0FFF1FE75BFD4F0190BC
:1021F000F081E02D2C9130E084A190E042A5841B79
:102200009109281739073CF480E111968C93812FAE
:102210006AE00E945106DF91CF911F91089580914D
:10222000A704833810F480E0089585E00E94B3127B
:1022300081E00895CF93DF930E94F21180918E0484
:10224000823089F5AFE8B4E020E029C0C081D181B7
:102250008B818150823018F48F81821721F09F5F2B
:102260003296963099F7E92FF0E0EE0FFF1FE75B0B
:10227000FD4F0190F081E02D848512968C9312978A
:10228000858514968C9314971C9211961C92119725
:1022900015969C9315972F5F1696253021F0E9E44B
:1022A000F2E090E0D3CF0E94670080E00E947200CD
:1022B0000E947800DF91CF910895039666E170E067
:1022C0000E947D14CB01880F991F860F971FA0E0F5
:1022D000B0E022E0880F991FAA1FBB1F2A95D1F7F3
:1022E00020E030E003C000002F5F3F4F2817390780
:1022F000D0F308951092C4031092C30383B788608B
:1023000083BF83B7887F836083BF12BE8CE881BFA1
:1023100087B7826087BF08959093C4038093C303F7
:1023200008951F920F920FB60F920BB60F921124C1
:102330002F933F934F935F936F937F938F939F93CD
:10234000AF93BF93EF93FF93E091C303F091C40366
:102350000995FF91EF91BF91AF919F918F917F91DF
:102360006F915F914F913F912F910F900BBE0F9006
:102370000FBE0F901F90189514BA15BA12B813B863
:102380001092610010926200109264001092650039
:102390000895FA01882319F4633018F009C08130D8
:1023A00039F084E0808382E08183828383E0089532
:1023B0008FEF08958091A704833810F480E008958A
:1023C0008091C60390E080579040959587958F70D7
:1023D000880F880F8BBB8CE38ABB80E882B913B867
:1023E00081E0089508950895089508950895089541
:1023F0008F929F92AF92BF92CF92DF92EF92FF9215
:102400000F931F93DF93CF93CDB7DEB769970FB6C6
:10241000F894DEBF0FBECDBF982F5B01FA014801D3
:10242000DB018C91882309F062C011968C91119781
:10243000882309F05CC012968C91803609F057C051
:102440009333D1F4263008F443C0263108F040C05D
:102450001F9AFFB6F8948081728160E09381690FC2
:10246000711D8F774181248135968F010E94400430
:10247000FFBE1F9880E02DC0943351F5253041F503
:10248000C4801F9ADFB6F8948081728160E09381E6
:10249000690F711D8F7741812C2D7E010894E11CFD
:1024A000F11C87010E94A304DFBE1F98F701D4012D
:1024B00097012C0D311D04C0819113968C931397B5
:1024C0001196E217F307C1F72C2D2C5F80E002C0B4
:1024D00081EC24E0F4018083D5018C9181831196F5
:1024E0008C911197828312968C91838301C02FEF78
:1024F000822F69960FB6F894DEBF0FBECDBFCF9185
:10250000DF911F910F91FF90EF90DF90CF90BF90E0
:10251000AF909F908F900895FF920F931F93DF933A
:10252000CF930F92CDB7DEB7823011F48AE103C0AA
:10253000833021F48EE460E070E003C08AE261E061
:1025400070E0FFB6F89441E021E08E010F5F1F4F6D
:102550000E94A304FFBE89810F90CF91DF911F914C
:102560000F91FF9008958230E9F0833028F488239A
:1025700059F0813039F40FC08530D9F0863009F137
:102580008430E9F08FEF0895AF9884E690E00E94E0
:102590005D11AF9A14C0AA9884E690E00E945D1184
:1025A000AA9A0DC0AB9884E690E00E945D11AB9AA8
:1025B00006C0AF9AAE9A8AE090E00E945D1180E07A
:1025C0000895AF98AE9880E0089581E00E948C1243
:1025D0008093950480918E04823019F481E00E94EA
:1025E0008B0F82E00E948C1280939B0480918E045A
:1025F000823011F40E948B0F83E00E948C12809332
:10260000A10480918E04823019F483E00E948B0F24
:1026100080E00E947B008093A70408950F931F938E
:10262000DF93CF93CDB7DEB7C554D0400FB6F89443
:10263000DEBF0FBECDBF8C01DE011196EFE7F2E0E9
:1026400085E401900D928150E1F7F801E80FF11D4A
:1026500010828F5F8038C9F780E18A838BEFFE019B
:10266000EC5BFF4F808320E030E0AE014F5F5F4FB7
:10267000F801E20FF31FDA01A20FB31F8C918083E0
:102680002F5F3F4F2534310599F7C8016FE70E944E
:102690005C0501581F4FF801808380E8CB5BDF4F5A
:1026A0000FB6F894DEBF0FBECDBFCF91DF911F9163
:1026B0000F9108950F931F93DF93CF93CDB7DEB79C
:1026C000AB970FB6F894DEBF0FBECDBF8C01DE0115
:1026D0001196E4ECF2E08BE201900D928150E1F76B
:1026E000F801E80FF11D10828F5F8038C9F780E193
:1026F0008A8385ED8AA720E030E0AE014F5F5F4F0F
:10270000F801E20FF31FDA01A20FB31F8C9180834F
:102710002F5F3F4F2B32310599F7C8016FE70E94B9
:102720005C0501581F4FF801808380E8AB960FB617
:10273000F894DEBF0FBECDBFCF91DF911F910F91F7
:102740000895DF92EF92FF920F931F93DF93CF9341
:10275000CDB7DEB769970FB6F894DEBF0FBECDBF19
:10276000082FD92EEDB6FEB6DE011596EBE5F2E0A8
:1027700085E101900D928150E1F76F818DB79EB791
:10278000861B91090FB6F8949EBF0FBE8DBF4DB743
:102790005EB74F5F5F4F162F1B5FDE011A9620E07A
:1027A00030E007C0FA01E20FF31F8D9180832F5FA5
:1027B0003F4F2617B8F3CA010E945C0588879D81A8
:1027C00099839E819A839F819B838C83CE010196FE
:1027D00064E00E945C058987AE014B5F5F4F202F4C
:1027E0003D2DC901DC01FA0102C081918D938E2F2C
:1027F000841B8117D0F3812F0FB6F894FEBE0FBE55
:10280000EDBE69960FB6F894DEBF0FBECDBFCF9177
:10281000DF911F910F91FF90EF90DF900895DF926D
:10282000EF92FF920F931F93DF93CF93CDB7DEB755
:1028300063970FB6F894DEBF0FBECDBF082FD92E19
:10284000EDB6FEB6DE011596E0E7F2E08FE001900E
:102850000D928150E1F76F818DB79EB7861B91096C
:102860000FB6F8949EBF0FBE8DBF4DB75EB74F5FDA
:102870005F4F162F1B5FDE011A9620E030E007C085
:10288000FA01E20FF31F8D9180832F5F3F4F2617D0
:10289000B8F3CA010E945C0588879D8199839E8157
:1028A0009A839F819B838C83CE01019664E00E9472
:1028B0005C058987AE014B5F5F4F202F3D2DC9011D
:1028C000DC01FA0102C081918D938E2F841B811748
:1028D000D0F3812F0FB6F894FEBE0FBEEDBE639607
:1028E0000FB6F894DEBF0FBECDBFCF91DF911F9121
:1028F0000F91FF90EF90DF900895AA1BBB1B51E151
:1029000007C0AA1FBB1FA617B70710F0A61BB70B5F
:10291000881F991F5A95A9F780959095BC01CD0104
:062920000895F894FFCFBA
:10292600010051121800000029000000C10000CD6E
:102936004345524E20414D432D474C4942030051D9
:102946000137000000C10003C1F26F070007000055
:1029560000C00000000000000000000000000000B1
:10296600000000000000000000000000CC474C49B9
:102976004220486F7453776170030051013800009C
:1029860001C10003480101800A807A3838800100BD
:1029960000010000000000071E28146400463C2DBC
:1029A6000000000202000000CD474C494220546559
:1029B6006D70465047410400510139000002C100C4
:1029C60003480101800A807A38388001000001003E
:1029D60000000000071E28146400463C2D0000007D
:1029E6000202000000CE474C49422054656D7046F5
:1029F600726F6E740500510138000003C100034870
:102A06000101800A807A3838800100000100000048
:102A16000000071E28146400463C2D000000020238
:102A2600000000CD474C49422054656D70526561E7
:102A3600720600510133000004C100034802018000
:102A46000AA87A3F3F000400004E0200040CD0079B
:102A5600A0B090FF00F7F2E960708002020000006B
:102A6600C8474C49422031325600011D0159019692
:102A760001D40111021D3C3D3E3D38C082100000CC
:102A86005A31001900008001A498F30000000000EC
:102A9600C0820600005A310016001E000000000128
:102AA6000019C44345524ECF414D4320474C49423D
:102AB600206465766B6974CB772F204D4D43207665
:102AC600342E30CE46573A342E32312F313430330D
:102AD6003236CC303030303030303030303030007C
:102AE600C0C10000010019603588C44345524ECB71
:102AF600414D4320474C4942207633CC303030306C
:102B06003030303030303030C23033C0C100000099
:00000001FF
